{
  "_format": "hh-sol-artifact-1",
  "contractName": "Arbitrage",
  "sourceName": "contracts/Arbitrage.sol",
  "abi": [
    {
      "inputs": [],
      "stateMutability": "nonpayable",
      "type": "constructor"
    },
    {
      "inputs": [
        {
          "internalType": "address",
          "name": "flashLoanProviderAddress",
          "type": "address"
        },
        {
          "internalType": "address",
          "name": "token",
          "type": "address"
        },
        {
          "internalType": "uint256",
          "name": "loanAmount",
          "type": "uint256"
        },
        {
          "internalType": "address[]",
          "name": "fromPath",
          "type": "address[]"
        },
        {
          "internalType": "address[]",
          "name": "toPath",
          "type": "address[]"
        },
        {
          "internalType": "uint256",
          "name": "amountOutMinFrom",
          "type": "uint256"
        },
        {
          "internalType": "uint256",
          "name": "amountOutMinTo",
          "type": "uint256"
        },
        {
          "internalType": "address",
          "name": "fromDex",
          "type": "address"
        },
        {
          "internalType": "address",
          "name": "toDex",
          "type": "address"
        }
      ],
      "name": "executeArbitrage",
      "outputs": [],
      "stateMutability": "nonpayable",
      "type": "function"
    },
    {
      "inputs": [
        {
          "internalType": "address",
          "name": "token",
          "type": "address"
        },
        {
          "internalType": "uint256",
          "name": "",
          "type": "uint256"
        },
        {
          "internalType": "bytes",
          "name": "data",
          "type": "bytes"
        }
      ],
      "name": "onFlashLoanCallback",
      "outputs": [],
      "stateMutability": "nonpayable",
      "type": "function"
    },
    {
      "inputs": [],
      "name": "owner",
      "outputs": [
        {
          "internalType": "address",
          "name": "",
          "type": "address"
        }
      ],
      "stateMutability": "view",
      "type": "function"
    }
  ],
  "bytecode": "0x608060405234801561001057600080fd5b50600080546001600160a01b03191633179055610c2a806100326000396000f3fe608060405234801561001057600080fd5b50600436106100415760003560e01c8063278c7e3a146100465780635adccd4e1461005b5780638da5cb5b1461006e575b600080fd5b61005961005436600461061b565b61009d565b005b6100596100693660046106f0565b6104db565b600054610081906001600160a01b031681565b6040516001600160a01b03909116815260200160405180910390f35b60008080808080806100b1888a018a6108af565b60405163095ea7b360e01b81526001600160a01b03808416600483015260248201899052979f50959d50939b50919950975095509350908d16915063095ea7b3906044016020604051808303816000875af1158015610114573d6000803e3d6000fd5b505050506040513d601f19601f82011682018060405250810190610138919061096a565b506040516338ed173960e01b81526001600160a01b038316906338ed17399061016d908a9088908b9030904290600401610993565b6000604051808303816000875af115801561018c573d6000803e3d6000fd5b505050506040513d6000823e601f3d908101601f191682016040526101b49190810190610a06565b506040516370a0823160e01b81523060048201526000906001600160a01b038d16906370a0823190602401602060405180830381865afa1580156101fc573d6000803e3d6000fd5b505050506040513d601f19601f820116820180604052508101906102209190610a97565b60405163095ea7b360e01b81526001600160a01b03848116600483015260248201839052919250908d169063095ea7b3906044016020604051808303816000875af1158015610273573d6000803e3d6000fd5b505050506040513d601f19601f82011682018060405250810190610297919061096a565b506040516338ed173960e01b81526001600160a01b038316906338ed1739906102cc90849088908b9030904290600401610993565b6000604051808303816000875af11580156102eb573d6000803e3d6000fd5b505050506040513d6000823e601f3d908101601f191682016040526103139190810190610a06565b506040516370a0823160e01b815230600482015260009089906001600160a01b038f16906370a0823190602401602060405180830381865afa15801561035d573d6000803e3d6000fd5b505050506040513d601f19601f820116820180604052508101906103819190610a97565b61038b9190610ab0565b9050600081116103e25760405162461bcd60e51b815260206004820152600e60248201527f4e6f2070726f666974206d61646500000000000000000000000000000000000060448201526064015b60405180910390fd5b60005460405163a9059cbb60e01b81526001600160a01b03918216600482015260248101839052908e169063a9059cbb906044016020604051808303816000875af1158015610435573d6000803e3d6000fd5b505050506040513d601f19601f82011682018060405250810190610459919061096a565b5060405163a9059cbb60e01b8152336004820152602481018a90526001600160a01b038e169063a9059cbb906044016020604051808303816000875af11580156104a7573d6000803e3d6000fd5b505050506040513d601f19601f820116820180604052508101906104cb919061096a565b5050505050505050505050505050565b6000546001600160a01b031633146105355760405162461bcd60e51b815260206004820152601b60248201527f4f6e6c79206f776e65722063616e20657865637574652074686973000000000060448201526064016103d9565b60008a8a8a8a8a8a8a8a8a8a60405160200161055a9a99989796959493929190610b20565b60408051601f19818403018152908290527fe0232b4200000000000000000000000000000000000000000000000000000000825291506001600160a01b038d169063e0232b42906105b3908e908e908690600401610b8d565b600060405180830381600087803b1580156105cd57600080fd5b505af11580156105e1573d6000803e3d6000fd5b50505050505050505050505050505050565b6001600160a01b038116811461060857600080fd5b50565b8035610616816105f3565b919050565b6000806000806060858703121561063157600080fd5b843561063c816105f3565b935060208501359250604085013567ffffffffffffffff8082111561066057600080fd5b818701915087601f83011261067457600080fd5b81358181111561068357600080fd5b88602082850101111561069557600080fd5b95989497505060200194505050565b60008083601f8401126106b657600080fd5b50813567ffffffffffffffff8111156106ce57600080fd5b6020830191508360208260051b85010111156106e957600080fd5b9250929050565b60008060008060008060008060008060006101208c8e03121561071257600080fd5b61071c8c356105f3565b8b359a5061072d60208d01356105f3565b60208c0135995060408c0135985067ffffffffffffffff8060608e0135111561075557600080fd5b6107658e60608f01358f016106a4565b909950975060808d013581101561077b57600080fd5b5061078c8d60808e01358e016106a4565b909650945060a08c0135935060c08c013592506107ab60e08d0161060b565b91506107ba6101008d0161060b565b90509295989b509295989b9093969950565b634e487b7160e01b600052604160045260246000fd5b604051601f8201601f1916810167ffffffffffffffff8111828210171561080b5761080b6107cc565b604052919050565b600067ffffffffffffffff82111561082d5761082d6107cc565b5060051b60200190565b600082601f83011261084857600080fd5b8135602061085d61085883610813565b6107e2565b8083825260208201915060208460051b87010193508684111561087f57600080fd5b602086015b848110156108a4578035610897816105f3565b8352918301918301610884565b509695505050505050565b600080600080600080600080610100898b0312156108cc57600080fd5b88356108d7816105f3565b975060208901359650604089013567ffffffffffffffff808211156108fb57600080fd5b6109078c838d01610837565b975060608b013591508082111561091d57600080fd5b5061092a8b828c01610837565b9550506080890135935060a0890135925060c0890135610949816105f3565b915060e0890135610959816105f3565b809150509295985092959890939650565b60006020828403121561097c57600080fd5b8151801515811461098c57600080fd5b9392505050565b600060a08201878352602087602085015260a0604085015281875180845260c08601915060208901935060005b818110156109e55784516001600160a01b0316835293830193918301916001016109c0565b50506001600160a01b03969096166060850152505050608001529392505050565b60006020808385031215610a1957600080fd5b825167ffffffffffffffff811115610a3057600080fd5b8301601f81018513610a4157600080fd5b8051610a4f61085882610813565b81815260059190911b82018301908381019087831115610a6e57600080fd5b928401925b82841015610a8c57835182529284019290840190610a73565b979650505050505050565b600060208284031215610aa957600080fd5b5051919050565b81810381811115610ad157634e487b7160e01b600052601160045260246000fd5b92915050565b8183526000602080850194508260005b85811015610b15578135610afa816105f3565b6001600160a01b031687529582019590820190600101610ae7565b509495945050505050565b60006101006001600160a01b03808e1684528c6020850152816040850152610b4b8285018c8e610ad7565b91508382036060850152610b60828a8c610ad7565b608085019890985260a0840196909652505091831660c083015290911660e0909101529695505050505050565b6001600160a01b03841681526000602084602084015260606040840152835180606085015260005b81811015610bd157858101830151858201608001528201610bb5565b506000608082860101526080601f19601f8301168501019250505094935050505056fea2646970667358221220526e40eb2f9c8b9af992b665b65ef7200b2367e21f075b851e8b17bff42a6d9364736f6c63430008180033",
  "linkReferences": {},
  "deployedLinkReferences": {}
}